{
  "address": "0x41B0039fcC760B8899b3D11e954A7A7B5dfC9E4c",
  "abi": [
    {
      "constant": true,
      "inputs": [
        {
          "name": "_interfaceId",
          "type": "bytes4"
        }
      ],
      "name": "supportsInterface",
      "outputs": [
        {
          "name": "",
          "type": "bool"
        }
      ],
      "payable": false,
      "stateMutability": "pure",
      "type": "function"
    },
    {
      "constant": true,
      "inputs": [
        {
          "name": "_actionId",
          "type": "uint256"
        },
        {
          "name": "_challenger",
          "type": "address"
        }
      ],
      "name": "canPerformChallenge",
      "outputs": [
        {
          "name": "",
          "type": "bool"
        }
      ],
      "payable": false,
      "stateMutability": "view",
      "type": "function"
    },
    {
      "constant": false,
      "inputs": [
        {
          "name": "_disputable",
          "type": "address"
        },
        {
          "name": "_collateralToken",
          "type": "address"
        },
        {
          "name": "_challengeDuration",
          "type": "uint64"
        },
        {
          "name": "_actionAmount",
          "type": "uint256"
        },
        {
          "name": "_challengeAmount",
          "type": "uint256"
        }
      ],
      "name": "changeCollateralRequirement",
      "outputs": [],
      "payable": false,
      "stateMutability": "nonpayable",
      "type": "function"
    },
    {
      "constant": true,
      "inputs": [],
      "name": "hasInitialized",
      "outputs": [
        {
          "name": "",
          "type": "bool"
        }
      ],
      "payable": false,
      "stateMutability": "view",
      "type": "function"
    },
    {
      "constant": true,
      "inputs": [
        {
          "name": "_signer",
          "type": "address"
        }
      ],
      "name": "getSigner",
      "outputs": [
        {
          "name": "lastSettingIdSigned",
          "type": "uint256"
        },
        {
          "name": "mustSign",
          "type": "bool"
        }
      ],
      "payable": false,
      "stateMutability": "view",
      "type": "function"
    },
    {
      "constant": true,
      "inputs": [
        {
          "name": "_challengeId",
          "type": "uint256"
        }
      ],
      "name": "getChallenge",
      "outputs": [
        {
          "name": "actionId",
          "type": "uint256"
        },
        {
          "name": "challenger",
          "type": "address"
        },
        {
          "name": "endDate",
          "type": "uint64"
        },
        {
          "name": "context",
          "type": "bytes"
        },
        {
          "name": "settlementOffer",
          "type": "uint256"
        },
        {
          "name": "state",
          "type": "uint8"
        },
        {
          "name": "submitterFinishedEvidence",
          "type": "bool"
        },
        {
          "name": "challengerFinishedEvidence",
          "type": "bool"
        },
        {
          "name": "disputeId",
          "type": "uint256"
        },
        {
          "name": "ruling",
          "type": "uint256"
        }
      ],
      "payable": false,
      "stateMutability": "view",
      "type": "function"
    },
    {
      "constant": true,
      "inputs": [
        {
          "name": "_disputable",
          "type": "address"
        },
        {
          "name": "_collateralRequirementId",
          "type": "uint256"
        }
      ],
      "name": "getCollateralRequirement",
      "outputs": [
        {
          "name": "collateralToken",
          "type": "address"
        },
        {
          "name": "challengeDuration",
          "type": "uint64"
        },
        {
          "name": "actionAmount",
          "type": "uint256"
        },
        {
          "name": "challengeAmount",
          "type": "uint256"
        }
      ],
      "payable": false,
      "stateMutability": "view",
      "type": "function"
    },
    {
      "constant": true,
      "inputs": [],
      "name": "stakingFactory",
      "outputs": [
        {
          "name": "",
          "type": "address"
        }
      ],
      "payable": false,
      "stateMutability": "view",
      "type": "function"
    },
    {
      "constant": true,
      "inputs": [
        {
          "name": "_script",
          "type": "bytes"
        }
      ],
      "name": "getEVMScriptExecutor",
      "outputs": [
        {
          "name": "",
          "type": "address"
        }
      ],
      "payable": false,
      "stateMutability": "view",
      "type": "function"
    },
    {
      "constant": true,
      "inputs": [
        {
          "name": "",
          "type": "address"
        },
        {
          "name": "",
          "type": "address"
        },
        {
          "name": "",
          "type": "bytes32"
        },
        {
          "name": "_how",
          "type": "uint256[]"
        }
      ],
      "name": "canPerform",
      "outputs": [
        {
          "name": "",
          "type": "bool"
        }
      ],
      "payable": false,
      "stateMutability": "view",
      "type": "function"
    },
    {
      "constant": true,
      "inputs": [],
      "name": "MANAGE_DISPUTABLE_ROLE",
      "outputs": [
        {
          "name": "",
          "type": "bytes32"
        }
      ],
      "payable": false,
      "stateMutability": "view",
      "type": "function"
    },
    {
      "constant": false,
      "inputs": [
        {
          "name": "_arbitrator",
          "type": "address"
        },
        {
          "name": "_setAppFeesCashier",
          "type": "bool"
        },
        {
          "name": "_title",
          "type": "string"
        },
        {
          "name": "_content",
          "type": "bytes"
        },
        {
          "name": "_stakingFactory",
          "type": "address"
        }
      ],
      "name": "initialize",
      "outputs": [],
      "payable": false,
      "stateMutability": "nonpayable",
      "type": "function"
    },
    {
      "constant": false,
      "inputs": [
        {
          "name": "_actionId",
          "type": "uint256"
        },
        {
          "name": "_submitterFinishedEvidence",
          "type": "bool"
        }
      ],
      "name": "disputeAction",
      "outputs": [],
      "payable": false,
      "stateMutability": "nonpayable",
      "type": "function"
    },
    {
      "constant": false,
      "inputs": [
        {
          "name": "_settingId",
          "type": "uint256"
        }
      ],
      "name": "sign",
      "outputs": [],
      "payable": false,
      "stateMutability": "nonpayable",
      "type": "function"
    },
    {
      "constant": false,
      "inputs": [
        {
          "name": "_disputeId",
          "type": "uint256"
        },
        {
          "name": "_ruling",
          "type": "uint256"
        }
      ],
      "name": "rule",
      "outputs": [],
      "payable": false,
      "stateMutability": "nonpayable",
      "type": "function"
    },
    {
      "constant": true,
      "inputs": [
        {
          "name": "",
          "type": "address"
        },
        {
          "name": "",
          "type": "uint256"
        }
      ],
      "name": "canUnlock",
      "outputs": [
        {
          "name": "",
          "type": "bool"
        }
      ],
      "payable": false,
      "stateMutability": "view",
      "type": "function"
    },
    {
      "constant": true,
      "inputs": [],
      "name": "getRecoveryVault",
      "outputs": [
        {
          "name": "",
          "type": "address"
        }
      ],
      "payable": false,
      "stateMutability": "view",
      "type": "function"
    },
    {
      "constant": false,
      "inputs": [
        {
          "name": "_actionId",
          "type": "uint256"
        },
        {
          "name": "_settlementOffer",
          "type": "uint256"
        },
        {
          "name": "_finishedEvidence",
          "type": "bool"
        },
        {
          "name": "_context",
          "type": "bytes"
        }
      ],
      "name": "challengeAction",
      "outputs": [],
      "payable": false,
      "stateMutability": "nonpayable",
      "type": "function"
    },
    {
      "constant": false,
      "inputs": [
        {
          "name": "_disputableAddress",
          "type": "address"
        },
        {
          "name": "_collateralToken",
          "type": "address"
        },
        {
          "name": "_challengeDuration",
          "type": "uint64"
        },
        {
          "name": "_actionAmount",
          "type": "uint256"
        },
        {
          "name": "_challengeAmount",
          "type": "uint256"
        }
      ],
      "name": "activate",
      "outputs": [],
      "payable": false,
      "stateMutability": "nonpayable",
      "type": "function"
    },
    {
      "constant": false,
      "inputs": [
        {
          "name": "_actionId",
          "type": "uint256"
        }
      ],
      "name": "closeAction",
      "outputs": [],
      "payable": false,
      "stateMutability": "nonpayable",
      "type": "function"
    },
    {
      "constant": true,
      "inputs": [
        {
          "name": "_actionId",
          "type": "uint256"
        }
      ],
      "name": "canRuleDispute",
      "outputs": [
        {
          "name": "",
          "type": "bool"
        }
      ],
      "payable": false,
      "stateMutability": "view",
      "type": "function"
    },
    {
      "constant": false,
      "inputs": [
        {
          "name": "_actionId",
          "type": "uint256"
        }
      ],
      "name": "settleAction",
      "outputs": [],
      "payable": false,
      "stateMutability": "nonpayable",
      "type": "function"
    },
    {
      "constant": false,
      "inputs": [
        {
          "name": "_disputableAddress",
          "type": "address"
        }
      ],
      "name": "deactivate",
      "outputs": [],
      "payable": false,
      "stateMutability": "nonpayable",
      "type": "function"
    },
    {
      "constant": true,
      "inputs": [
        {
          "name": "_settingId",
          "type": "uint256"
        }
      ],
      "name": "getSetting",
      "outputs": [
        {
          "name": "arbitrator",
          "type": "address"
        },
        {
          "name": "aragonAppFeesCashier",
          "type": "address"
        },
        {
          "name": "title",
          "type": "string"
        },
        {
          "name": "content",
          "type": "bytes"
        }
      ],
      "payable": false,
      "stateMutability": "view",
      "type": "function"
    },
    {
      "constant": false,
      "inputs": [
        {
          "name": "_arbitrator",
          "type": "address"
        },
        {
          "name": "_setAppFeesCashier",
          "type": "bool"
        },
        {
          "name": "_title",
          "type": "string"
        },
        {
          "name": "_content",
          "type": "bytes"
        }
      ],
      "name": "changeSetting",
      "outputs": [],
      "payable": false,
      "stateMutability": "nonpayable",
      "type": "function"
    },
    {
      "constant": true,
      "inputs": [
        {
          "name": "_actionId",
          "type": "uint256"
        }
      ],
      "name": "canChallenge",
      "outputs": [
        {
          "name": "",
          "type": "bool"
        }
      ],
      "payable": false,
      "stateMutability": "view",
      "type": "function"
    },
    {
      "constant": true,
      "inputs": [
        {
          "name": "_actionId",
          "type": "uint256"
        }
      ],
      "name": "canClose",
      "outputs": [
        {
          "name": "",
          "type": "bool"
        }
      ],
      "payable": false,
      "stateMutability": "view",
      "type": "function"
    },
    {
      "constant": true,
      "inputs": [
        {
          "name": "",
          "type": "address"
        }
      ],
      "name": "allowRecoverability",
      "outputs": [
        {
          "name": "",
          "type": "bool"
        }
      ],
      "payable": false,
      "stateMutability": "view",
      "type": "function"
    },
    {
      "constant": false,
      "inputs": [
        {
          "name": "_disputeId",
          "type": "uint256"
        }
      ],
      "name": "closeEvidencePeriod",
      "outputs": [],
      "payable": false,
      "stateMutability": "nonpayable",
      "type": "function"
    },
    {
      "constant": true,
      "inputs": [],
      "name": "appId",
      "outputs": [
        {
          "name": "",
          "type": "bytes32"
        }
      ],
      "payable": false,
      "stateMutability": "view",
      "type": "function"
    },
    {
      "constant": true,
      "inputs": [],
      "name": "getInitializationBlock",
      "outputs": [
        {
          "name": "",
          "type": "uint256"
        }
      ],
      "payable": false,
      "stateMutability": "view",
      "type": "function"
    },
    {
      "constant": true,
      "inputs": [],
      "name": "CHALLENGE_ROLE",
      "outputs": [
        {
          "name": "",
          "type": "bytes32"
        }
      ],
      "payable": false,
      "stateMutability": "view",
      "type": "function"
    },
    {
      "constant": false,
      "inputs": [
        {
          "name": "_token",
          "type": "address"
        }
      ],
      "name": "transferToVault",
      "outputs": [],
      "payable": false,
      "stateMutability": "nonpayable",
      "type": "function"
    },
    {
      "constant": true,
      "inputs": [
        {
          "name": "_sender",
          "type": "address"
        },
        {
          "name": "_role",
          "type": "bytes32"
        },
        {
          "name": "_params",
          "type": "uint256[]"
        }
      ],
      "name": "canPerform",
      "outputs": [
        {
          "name": "",
          "type": "bool"
        }
      ],
      "payable": false,
      "stateMutability": "view",
      "type": "function"
    },
    {
      "constant": true,
      "inputs": [],
      "name": "getEVMScriptRegistry",
      "outputs": [
        {
          "name": "",
          "type": "address"
        }
      ],
      "payable": false,
      "stateMutability": "view",
      "type": "function"
    },
    {
      "constant": true,
      "inputs": [
        {
          "name": "_actionId",
          "type": "uint256"
        }
      ],
      "name": "canDispute",
      "outputs": [
        {
          "name": "",
          "type": "bool"
        }
      ],
      "payable": false,
      "stateMutability": "view",
      "type": "function"
    },
    {
      "constant": true,
      "inputs": [],
      "name": "getCurrentSettingId",
      "outputs": [
        {
          "name": "",
          "type": "uint256"
        }
      ],
      "payable": false,
      "stateMutability": "view",
      "type": "function"
    },
    {
      "constant": true,
      "inputs": [
        {
          "name": "_actionId",
          "type": "uint256"
        }
      ],
      "name": "getAction",
      "outputs": [
        {
          "name": "disputable",
          "type": "address"
        },
        {
          "name": "disputableActionId",
          "type": "uint256"
        },
        {
          "name": "collateralRequirementId",
          "type": "uint256"
        },
        {
          "name": "settingId",
          "type": "uint256"
        },
        {
          "name": "submitter",
          "type": "address"
        },
        {
          "name": "closed",
          "type": "bool"
        },
        {
          "name": "context",
          "type": "bytes"
        },
        {
          "name": "lastChallengeId",
          "type": "uint256"
        },
        {
          "name": "lastChallengeActive",
          "type": "bool"
        }
      ],
      "payable": false,
      "stateMutability": "view",
      "type": "function"
    },
    {
      "constant": true,
      "inputs": [
        {
          "name": "_disputable",
          "type": "address"
        }
      ],
      "name": "getDisputableInfo",
      "outputs": [
        {
          "name": "activated",
          "type": "bool"
        },
        {
          "name": "currentCollateralRequirementId",
          "type": "uint256"
        }
      ],
      "payable": false,
      "stateMutability": "view",
      "type": "function"
    },
    {
      "constant": false,
      "inputs": [
        {
          "name": "_disputeId",
          "type": "uint256"
        },
        {
          "name": "_evidence",
          "type": "bytes"
        },
        {
          "name": "_finished",
          "type": "bool"
        }
      ],
      "name": "submitEvidence",
      "outputs": [],
      "payable": false,
      "stateMutability": "nonpayable",
      "type": "function"
    },
    {
      "constant": false,
      "inputs": [],
      "name": "syncAppFeesCashier",
      "outputs": [],
      "payable": false,
      "stateMutability": "nonpayable",
      "type": "function"
    },
    {
      "constant": true,
      "inputs": [],
      "name": "CHANGE_AGREEMENT_ROLE",
      "outputs": [
        {
          "name": "",
          "type": "bytes32"
        }
      ],
      "payable": false,
      "stateMutability": "view",
      "type": "function"
    },
    {
      "constant": true,
      "inputs": [
        {
          "name": "_actionId",
          "type": "uint256"
        }
      ],
      "name": "canClaimSettlement",
      "outputs": [
        {
          "name": "",
          "type": "bool"
        }
      ],
      "payable": false,
      "stateMutability": "view",
      "type": "function"
    },
    {
      "constant": true,
      "inputs": [],
      "name": "kernel",
      "outputs": [
        {
          "name": "",
          "type": "address"
        }
      ],
      "payable": false,
      "stateMutability": "view",
      "type": "function"
    },
    {
      "constant": true,
      "inputs": [],
      "name": "isPetrified",
      "outputs": [
        {
          "name": "",
          "type": "bool"
        }
      ],
      "payable": false,
      "stateMutability": "view",
      "type": "function"
    },
    {
      "constant": true,
      "inputs": [
        {
          "name": "_actionId",
          "type": "uint256"
        }
      ],
      "name": "canSettle",
      "outputs": [
        {
          "name": "",
          "type": "bool"
        }
      ],
      "payable": false,
      "stateMutability": "view",
      "type": "function"
    },
    {
      "constant": false,
      "inputs": [
        {
          "name": "_disputableActionId",
          "type": "uint256"
        },
        {
          "name": "_context",
          "type": "bytes"
        },
        {
          "name": "_submitter",
          "type": "address"
        }
      ],
      "name": "newAction",
      "outputs": [
        {
          "name": "",
          "type": "uint256"
        }
      ],
      "payable": false,
      "stateMutability": "nonpayable",
      "type": "function"
    },
    {
      "constant": true,
      "inputs": [
        {
          "name": "_challengeId",
          "type": "uint256"
        }
      ],
      "name": "getChallengeArbitratorFees",
      "outputs": [
        {
          "name": "submitterArbitratorFeesToken",
          "type": "address"
        },
        {
          "name": "submitterArbitratorFeesAmount",
          "type": "uint256"
        },
        {
          "name": "challengerArbitratorFeesToken",
          "type": "address"
        },
        {
          "name": "challengerArbitratorFeesAmount",
          "type": "uint256"
        }
      ],
      "payable": false,
      "stateMutability": "view",
      "type": "function"
    },
    {
      "anonymous": false,
      "inputs": [
        {
          "indexed": true,
          "name": "signer",
          "type": "address"
        },
        {
          "indexed": false,
          "name": "settingId",
          "type": "uint256"
        }
      ],
      "name": "Signed",
      "type": "event"
    },
    {
      "anonymous": false,
      "inputs": [
        {
          "indexed": false,
          "name": "settingId",
          "type": "uint256"
        }
      ],
      "name": "SettingChanged",
      "type": "event"
    },
    {
      "anonymous": false,
      "inputs": [
        {
          "indexed": false,
          "name": "newAppFeesCashier",
          "type": "address"
        }
      ],
      "name": "AppFeesCashierSynced",
      "type": "event"
    },
    {
      "anonymous": false,
      "inputs": [
        {
          "indexed": true,
          "name": "disputable",
          "type": "address"
        }
      ],
      "name": "DisputableAppActivated",
      "type": "event"
    },
    {
      "anonymous": false,
      "inputs": [
        {
          "indexed": true,
          "name": "disputable",
          "type": "address"
        }
      ],
      "name": "DisputableAppDeactivated",
      "type": "event"
    },
    {
      "anonymous": false,
      "inputs": [
        {
          "indexed": true,
          "name": "disputable",
          "type": "address"
        },
        {
          "indexed": false,
          "name": "collateralRequirementId",
          "type": "uint256"
        }
      ],
      "name": "CollateralRequirementChanged",
      "type": "event"
    },
    {
      "anonymous": false,
      "inputs": [
        {
          "indexed": true,
          "name": "executor",
          "type": "address"
        },
        {
          "indexed": false,
          "name": "script",
          "type": "bytes"
        },
        {
          "indexed": false,
          "name": "input",
          "type": "bytes"
        },
        {
          "indexed": false,
          "name": "returnData",
          "type": "bytes"
        }
      ],
      "name": "ScriptResult",
      "type": "event"
    },
    {
      "anonymous": false,
      "inputs": [
        {
          "indexed": true,
          "name": "vault",
          "type": "address"
        },
        {
          "indexed": true,
          "name": "token",
          "type": "address"
        },
        {
          "indexed": false,
          "name": "amount",
          "type": "uint256"
        }
      ],
      "name": "RecoverToVault",
      "type": "event"
    },
    {
      "anonymous": false,
      "inputs": [
        {
          "indexed": true,
          "name": "actionId",
          "type": "uint256"
        },
        {
          "indexed": true,
          "name": "disputable",
          "type": "address"
        }
      ],
      "name": "ActionSubmitted",
      "type": "event"
    },
    {
      "anonymous": false,
      "inputs": [
        {
          "indexed": true,
          "name": "actionId",
          "type": "uint256"
        }
      ],
      "name": "ActionClosed",
      "type": "event"
    },
    {
      "anonymous": false,
      "inputs": [
        {
          "indexed": true,
          "name": "actionId",
          "type": "uint256"
        },
        {
          "indexed": true,
          "name": "challengeId",
          "type": "uint256"
        }
      ],
      "name": "ActionChallenged",
      "type": "event"
    },
    {
      "anonymous": false,
      "inputs": [
        {
          "indexed": true,
          "name": "actionId",
          "type": "uint256"
        },
        {
          "indexed": true,
          "name": "challengeId",
          "type": "uint256"
        }
      ],
      "name": "ActionSettled",
      "type": "event"
    },
    {
      "anonymous": false,
      "inputs": [
        {
          "indexed": true,
          "name": "actionId",
          "type": "uint256"
        },
        {
          "indexed": true,
          "name": "challengeId",
          "type": "uint256"
        }
      ],
      "name": "ActionDisputed",
      "type": "event"
    },
    {
      "anonymous": false,
      "inputs": [
        {
          "indexed": true,
          "name": "actionId",
          "type": "uint256"
        },
        {
          "indexed": true,
          "name": "challengeId",
          "type": "uint256"
        }
      ],
      "name": "ActionAccepted",
      "type": "event"
    },
    {
      "anonymous": false,
      "inputs": [
        {
          "indexed": true,
          "name": "actionId",
          "type": "uint256"
        },
        {
          "indexed": true,
          "name": "challengeId",
          "type": "uint256"
        }
      ],
      "name": "ActionVoided",
      "type": "event"
    },
    {
      "anonymous": false,
      "inputs": [
        {
          "indexed": true,
          "name": "actionId",
          "type": "uint256"
        },
        {
          "indexed": true,
          "name": "challengeId",
          "type": "uint256"
        }
      ],
      "name": "ActionRejected",
      "type": "event"
    },
    {
      "anonymous": false,
      "inputs": [
        {
          "indexed": true,
          "name": "arbitrator",
          "type": "address"
        },
        {
          "indexed": true,
          "name": "disputeId",
          "type": "uint256"
        },
        {
          "indexed": false,
          "name": "ruling",
          "type": "uint256"
        }
      ],
      "name": "Ruled",
      "type": "event"
    },
    {
      "anonymous": false,
      "inputs": [
        {
          "indexed": true,
          "name": "arbitrator",
          "type": "address"
        },
        {
          "indexed": true,
          "name": "disputeId",
          "type": "uint256"
        },
        {
          "indexed": true,
          "name": "submitter",
          "type": "address"
        },
        {
          "indexed": false,
          "name": "evidence",
          "type": "bytes"
        },
        {
          "indexed": false,
          "name": "finished",
          "type": "bool"
        }
      ],
      "name": "EvidenceSubmitted",
      "type": "event"
    }
  ],
  "transactionHash": "0x8d5e2df8787f80cca5c2c5bbd03ef1b9dbe2fcb259a9c22bb070cdbcc51380c0",
  "args": [],
  "solcInputHash": "68b5e6a4da474054341c26f114a2ffd3",
  "bytecode": "0x6080604052620000176401000000006200001d810204565b6200023b565b6200003064010000000062000125810204565b60408051808201909152601881527f494e49545f414c52454144595f494e495449414c495a45440000000000000000602082015290156200010c576040517f08c379a00000000000000000000000000000000000000000000000000000000081526004018080602001828103825283818151815260200191508051906020019080838360005b83811015620000d0578181015183820152602001620000b6565b50505050905090810190601f168015620000fe5780820380516001836020036101000a031916815260200191505b509250505060405180910390fd5b506200012360001964010000000062000154810204565b565b60006200014f60008051602062005f6d83398151915264010000000062004ffb6200023382021704565b905090565b6200016764010000000062000125810204565b60408051808201909152601881527f494e49545f414c52454144595f494e495449414c495a454400000000000000006020820152901562000206576040517f08c379a000000000000000000000000000000000000000000000000000000000815260040180806020018281038252838181518152602001915080519060200190808383600083811015620000d0578181015183820152602001620000b6565b506200023060008051602062005f6d833981519152826401000000006200562c6200023782021704565b50565b5490565b9055565b615d22806200024b6000396000f3006080604052600436106102365763ffffffff600080516020615cd783398151915260003504166301ffc9a7811461023b57806305132b1a14610289578063079239d4146102ad5780630803fac0146102e95780631180b553146102fe5780631bdd4b7414610338578063221ce7c31461044357806329134768146104a05780632914b9bd146104d15780632a1510901461052a5780632cfbcf1b146105635780632d7b6fba1461058a5780632edc71ba146105cf5780632fb1b25f146105ec578063311a6c561461060457806332c6534b1461061f57806332f0a3b51461064357806336e21a57146106585780633a999604146106865780633b92da72146106c05780633c711e3b146106d85780633e838152146106f05780633ea053eb1461070857806340b437011461072957806365af5248146108515780636ab6802b1461089057806376740b5b146108a85780637e7db6e1146108c05780637e9adccf146108e157806380afdea8146108f95780638b3dd7491461090e5780638f911dca146109235780639d4941d814610938578063a1658fad14610959578063a479e508146109c0578063ac1b2335146109d5578063b658fb14146109ed578063b6e7687314610a02578063b86472b114610af6578063b9e9823f14610b32578063beb12b9014610b5b578063cd253d9914610b70578063cd2b85db14610b85578063d4aae0c414610b9d578063de4796ed14610bb2578063df69433b14610bc7578063e95fdd1d14610bdf578063f891e0e314610c0f575b600080fd5b34801561024757600080fd5b506102757fffffffff0000000000000000000000000000000000000000000000000000000060043516610c5c565b604080519115158252519081900360200190f35b34801561029557600080fd5b50610275600435600160a060020a0360243516610cb9565b3480156102b957600080fd5b506102e7600160a060020a036004358116906024351667ffffffffffffffff60443516606435608435610ce5565b005b3480156102f557600080fd5b50610275610e24565b34801561030a57600080fd5b5061031f600160a060020a0360043516610e4e565b6040805192835290151560208301528051918290030190f35b34801561034457600080fd5b50610350600435610e64565b604051808b81526020018a600160a060020a0316600160a060020a031681526020018967ffffffffffffffff1667ffffffffffffffff168152602001806020018881526020018760058111156103a257fe5b60ff1681526020018615151515815260200185151515158152602001848152602001838152602001828103825289818151815260200191508051906020019080838360005b838110156103ff5781810151838201526020016103e7565b50505050905090810190601f16801561042c5780820380516001836020036101000a031916815260200191505b509b50505050505050505050505060405180910390f35b34801561044f57600080fd5b50610467600160a060020a0360043516602435610fbb565b60408051600160a060020a03909516855267ffffffffffffffff9093166020850152838301919091526060830152519081900360800190f35b3480156104ac57600080fd5b506104b561102f565b60408051600160a060020a039092168252519081900360200190f35b3480156104dd57600080fd5b506040805160206004803580820135601f81018490048402850184019095528484526104b594369492936024939284019190819084018382808284375094975061103e9650505050505050565b34801561053657600080fd5b50610275600160a060020a036004803582169160248035909116916044359160643590810191013561112e565b34801561056f57600080fd5b5061057861129d565b60408051918252519081900360200190f35b34801561059657600080fd5b506102e7600160a060020a03600480358216916024803515159260443580830193908201359260643590810192013590608435166112c1565b3480156105db57600080fd5b506102e760043560243515156113f9565b3480156105f857600080fd5b506102e7600435611843565b34801561061057600080fd5b506102e76004356024356119b4565b34801561062b57600080fd5b50610275600160a060020a0360043516602435611b7b565b34801561064f57600080fd5b506104b5611b83565b34801561066457600080fd5b506102e760048035906024803591604435151591606435908101910135611c06565b34801561069257600080fd5b506102e7600160a060020a036004358116906024351667ffffffffffffffff60443516606435608435611ee1565b3480156106cc57600080fd5b506102e76004356121e8565b3480156106e457600080fd5b506102756004356122f4565b3480156106fc57600080fd5b506102e7600435612316565b34801561071457600080fd5b506102e7600160a060020a03600435166125ea565b34801561073557600080fd5b50610741600435612715565b6040518085600160a060020a0316600160a060020a0316815260200184600160a060020a0316600160a060020a031681526020018060200180602001838103835285818151815260200191508051906020019080838360005b838110156107b257818101518382015260200161079a565b50505050905090810190601f1680156107df5780820380516001836020036101000a031916815260200191505b50838103825284518152845160209182019186019080838360005b838110156108125781810151838201526020016107fa565b50505050905090810190601f16801561083f5780820380516001836020036101000a031916815260200191505b50965050505050505060405180910390f35b34801561085d57600080fd5b506102e760048035600160a060020a0316906024803515159160443580830192908201359160643591820191013561286a565b34801561089c57600080fd5b5061027560043561299a565b3480156108b457600080fd5b506102756004356129b1565b3480156108cc57600080fd5b50610275600160a060020a03600435166129c8565b3480156108ed57600080fd5b506102e76004356129ce565b34801561090557600080fd5b50610578612b9a565b34801561091a57600080fd5b50610578612bca565b34801561092f57600080fd5b50610578612bf5565b34801561094457600080fd5b506102e7600160a060020a0360043516612c19565b34801561096557600080fd5b506040805160206004604435818101358381028086018501909652808552610275958335600160a060020a0316956024803596369695606495939492019291829185019084908082843750949750612ea89650505050505050565b3480156109cc57600080fd5b506104b5613002565b3480156109e157600080fd5b506102756004356130b7565b3480156109f957600080fd5b506105786130d0565b348015610a0e57600080fd5b50610a1a6004356130da565b604051808a600160a060020a0316600160a060020a0316815260200189815260200188815260200187815260200186600160a060020a0316600160a060020a03168152602001851515151581526020018060200184815260200183151515158152602001828103825285818151815260200191508051906020019080838360005b83811015610ab3578181015183820152602001610a9b565b50505050905090810190601f168015610ae05780820380516001836020036101000a031916815260200191505b509a505050505050505050505060405180910390f35b348015610b0257600080fd5b50610b17600160a060020a0360043516613239565b60408051921515835260208301919091528051918290030190f35b348015610b3e57600080fd5b506102e7600480359060248035908101910135604435151561327b565b348015610b6757600080fd5b506102e76134c1565b348015610b7c57600080fd5b5061057861358b565b348015610b9157600080fd5b506102756004356135af565b348015610ba957600080fd5b506104b56135c8565b348015610bbe57600080fd5b506102756135f3565b348015610bd357600080fd5b50610275600435613606565b348015610beb57600080fd5b50610578600480359060248035908101910135600160a060020a036044351661361f565b348015610c1b57600080fd5b50610c27600435613821565b60408051600160a060020a03958616815260208101949094529190931682820152606082019290925290519081900360800190f35b6000610c6782613864565b80610cb357507fffffffff0000000000000000000000000000000000000000000000000000000082167f54053e6c00000000000000000000000000000000000000000000000000000000145b92915050565b600080610cc5846138bd565b8054909150610cdd90600160a060020a031684613968565b949350505050565b604080516000808252602082019092527f2309a8cbbd5c3f18649f3b7ac47a0e7b99756c2ac146dda1ffc80d3f80827be690610d279033908390855b50612ea8565b60408051808201909152600f81527f4150505f415554485f4641494c454400000000000000000000000000000000006020820152901515610de95760405160e560020a62461bcd0281526004018080602001828103825283818151815260200191508051906020019080838360005b83811015610dae578181015183820152602001610d96565b50505050905090810190601f168015610ddb5780820380516001836020036101000a031916815260200191505b509250505060405180910390fd5b50600160a060020a03871660009081526004602052604090209150610e0d82613add565b610e1b878388888888613b6c565b50505050505050565b600080610e2f612bca565b90508015801590610e47575080610e44613db0565b10155b91505b5090565b600080610e5a83613db4565b9094909350915050565b600080600060606000806000806000806000610e7f8c613ddf565b905080600001549a508060010160009054906101000a9004600160a060020a031699508060010160149054906101000a900467ffffffffffffffff169850806002018054600181600116156101000203166002900480601f016020809104026020016040519081016040528092919081815260200182805460018160011615610100020316600290048015610f555780601f10610f2a57610100808354040283529160200191610f55565b820191906000526020600020905b815481529060010190602001808311610f3857829003601f168201915b50505050509750806003015496508060080160009054906101000a900460ff1695508060080160019054906101000a900460ff1694508060080160029054906101000a900460ff1693508060090154925080600a01549150509193959799509193959799565b600160a060020a038216600090815260046020526040812081908190819081610fe48288613e83565b80546001820154600290920154600160a060020a0382169b7401000000000000000000000000000000000000000090920467ffffffffffffffff169a50919850909650945050505050565b600054600160a060020a031681565b6000611048613002565b600160a060020a03166304bf2a7f836040518263ffffffff16600080516020615cd78339815191520281526004018080602001828103825283818151815260200191508051906020019080838360005b838110156110b0578181015183820152602001611098565b50505050905090810190601f1680156110dd5780820380516001836020036101000a031916815260200191505b5092505050602060405180830381600087803b1580156110fc57600080fd5b505af1158015611110573d6000803e3d6000fd5b505050506040513d602081101561112657600080fd5b505192915050565b60408051808201909152601d81527f4147525f41434c5f4f5241434c455f5349474e45525f4d495353494e470000006020820152600090819081908185116111bb5760405160e560020a62461bcd02815260040180806020018281038252838181518152602001915080519060200190808383600083811015610dae578181015183820152602001610d96565b5074010000000000000000000000000000000000000000858560008181106111df57fe5b90506020020135106040805190810160405280601e81526020017f4147525f41434c5f4f5241434c455f5349474e45525f4e4f545f41444452000081525090151561126f5760405160e560020a62461bcd02815260040180806020018281038252838181518152602001915080519060200190808383600083811015610dae578181015183820152602001610d96565b508484600081811061127d57fe5b90506020020135915061128f82613db4565b159998505050505050505050565b7f2309a8cbbd5c3f18649f3b7ac47a0e7b99756c2ac146dda1ffc80d3f80827be681565b6112c9613f3a565b6112d281614002565b6040805190810160405280602081526020017f4147525f5354414b494e475f464143544f52595f4e4f545f434f4e545241435481525090151561135a5760405160e560020a62461bcd02815260040180806020018281038252838181518152602001915080519060200190808383600083811015610dae578181015183820152602001610d96565b506000805473ffffffffffffffffffffffffffffffffffffffff1916600160a060020a03831617905560018080556005819055600755604080516020601f8701819004810282018101909252858152610e1b918991899189908990819084018382808284375050604080516020601f8d018190048102820181019092528b815294508b93508a9250829150840183828082843750614028945050505050565b6000806000806000606060008060606114118b6141aa565b985098509850611420886141d3565b60408051808201909152601981527f4147525f43414e4e4f545f444953505554455f414354494f4e0000000000000060208201529015156114a65760405160e560020a62461bcd02815260040180806020018281038252838181518152602001915080519060200190808383600083811015610dae578181015183820152602001610d96565b50600489015460408051808201909152601681527f4147525f53454e4445525f4e4f545f414c4c4f574544000000000000000000006020820152600160a060020a03909116965033871461153f5760405160e560020a62461bcd02815260040180806020018281038252838181518152602001915080519060200190808383600083811015610dae578181015183820152602001610d96565b506115498961421d565b9450611553612b9a565b60068a0154604080516020810193909352828101919091528051808303820181526060909201905293506115898989878761423e565b600889015460058b01805460408051602060026101006001861615026000190190941693909304601f81018490048402820184019092528181529497506201000090930460ff16955061163b93899388938c939091908301828280156116305780601f1061160557610100808354040283529160200191611630565b820191906000526020600020905b81548152906001019060200180831161161357829003601f168201915b50505050508e614427565b6001888101546002808b01805460408051602061010097841615979097026000190190921693909304601f81018690048602820186019093528281526116e8948a948994600160a060020a0390911693918301828280156116dd5780601f106116b2576101008083540402835291602001916116dd565b820191906000526020600020905b8154815290600101906020018083116116c057829003601f168201915b505050505086614427565b8980156116f25750815b156117d4575060408051602480820185905282518083039091018152604490910182526020810180517bffffffffffffffffffffffffffffffffffffffffffffffffffffffff167f7e9adccf00000000000000000000000000000000000000000000000000000000178152915181519192600160a060020a03881692849291829180838360005b83811015611791578181015183820152602001611779565b50505050905090810190601f1680156117be5780820380516001836020036101000a031916815260200191505b509150506000604051808303816000865af15050505b600888018054600260ff199091161761ff0019166101008c1515021790556009808901849055600084815260209190915260408082208990555188918d917fb2a3bed46edbfc66a891dcf5e64cb46ed0dc8ad2554ed69eac73085bc1e15b4d9190a35050505050505050505050565b33600090815260036020908152604091829020548251808401909352601983527f4147525f5349474e45525f414c52454144595f5349474e45440000000000000091830191909152908282106118de5760405160e560020a62461bcd02815260040180806020018281038252838181518152602001915080519060200190808383600083811015610dae578181015183820152602001610d96565b5060015460408051808201909152601b81527f4147525f494e56414c49445f5349474e494e475f53455454494e47000000000060208201529083106119685760405160e560020a62461bcd02815260040180806020018281038252838181518152602001915080519060200190808383600083811015610dae578181015183820152602001610d96565b5033600081815260036020908152604091829020859055815185815291517ff4b7ab5b8fc49d6d35d323cae6a96e1441b461f862dfc5aff92e806e2839b5b09281900390910190a25050565b60008060008060006119c5876144f3565b94509450945094506119d682614526565b60408051808201909152601681527f4147525f43414e4e4f545f52554c455f414354494f4e000000000000000000006020820152901515611a5c5760405160e560020a62461bcd02815260040180806020018281038252838181518152602001915080519060200190808383600083811015610dae578181015183820152602001610d96565b50611a668461421d565b60408051808201909152601681527f4147525f53454e4445525f4e4f545f414c4c4f574544000000000000000000006020820152909150600160a060020a0382163314611af85760405160e560020a62461bcd02815260040180806020018281038252838181518152602001915080519060200190808383600083811015610dae578181015183820152602001610d96565b50600a82018690556040805187815290518891600160a060020a038416917f56c8631a8915c0d362dbe57a61215fdde954f73f81c8a3a1f55572fb015207b19181900360200190a36004861415611b5a57611b5585858585614545565b610e1b565b6003861415611b6f57611b5585858585614656565b610e1b85858585614790565b600092915050565b6000611b8d6135c8565b600160a060020a03166332f0a3b56040518163ffffffff16600080516020615cd7833981519152028152600401602060405180830381600087803b158015611bd457600080fd5b505af1158015611be8573d6000803e3d6000fd5b505050506040513d6020811015611bfe57600080fd5b505190505b90565b600080600080611c15896138bd565b9350611c20846148c7565b60408051808201909152601b81527f4147525f43414e4e4f545f4348414c4c454e47455f414354494f4e00000000006020820152901515611ca65760405160e560020a62461bcd02815260040180806020018281038252838181518152602001915080519060200190808383600083811015610dae578181015183820152602001610d96565b50611cb084614944565b92509250611cbe8333613968565b6040805190810160405280602081526020017f4147525f53454e4445525f43414e545f4348414c4c454e47455f414354494f4e815250901515611d465760405160e560020a62461bcd02815260040180806020018281038252838181518152602001915080519060200190808383600083811015610dae578181015183820152602001610d96565b50600182015460408051808201909152601c81527f4147525f494e56414c49445f534554544c454d454e545f4f4646455200000000602082015290891115611dd35760405160e560020a62461bcd02815260040180806020018281038252838181518152602001915080519060200190808383600083811015610dae578181015183820152602001610d96565b50611e13898533858c8c8c8c8080601f01602080910402602001604051908101604052809392919081815260200183838082843750614975945050505050565b600685018190556001850154604080517f7f439ce000000000000000000000000000000000000000000000000000000000815260048101929092526024820183905233604483015251919250600160a060020a03851691637f439ce09160648082019260009290919082900301818387803b158015611e9157600080fd5b505af1158015611ea5573d6000803e3d6000fd5b50506040518392508b91507f43e6ee6f565b58c6e3d7d297e76958632fc3e845fa6346b569d81205408855a890600090a3505050505050505050565b60408051600080825260208201909252819081907f2309a8cbbd5c3f18649f3b7ac47a0e7b99756c2ac146dda1ffc80d3f80827be690611f25903390839085610d21565b60408051808201909152600f81527f4150505f415554485f4641494c454400000000000000000000000000000000006020820152901515611fab5760405160e560020a62461bcd02815260040180806020018281038252838181518152602001915080519060200190808383600083811015610dae578181015183820152602001610d96565b50611fb589614002565b60408051808201909152601b81527f4147525f44495350555441424c455f4e4f545f434f4e54524143540000000000602082015290151561203b5760405160e560020a62461bcd02815260040180806020018281038252838181518152602001915080519060200190808383600083811015610dae578181015183820152602001610d96565b50600160a060020a0389166000908152600460205260409020935061205f84614b89565b835460ff19166001178455604080517fbca60cf500000000000000000000000000000000000000000000000000000000815290518a94503091600160a060020a0386169163bca60cf5916004808201926020929091908290030181600087803b1580156120cb57600080fd5b505af11580156120df573d6000803e3d6000fd5b505050506040513d60208110156120f557600080fd5b5051600160a060020a03161461219b57604080517f1e9ae2f40000000000000000000000000000000000000000000000000000000081523060048201529051600160a060020a03851691631e9ae2f491602480830192600092919082900301818387803b15801561216557600080fd5b505af1158015612179573d6000803e3d6000fd5b505050508360010154915060008211612193576001612195565b815b60018501555b6121a983858a8a8a8a613b6c565b604051600160a060020a038416907fd0ffe42a6295a578201aed3601630a6136d6e00fda266cf0dbf9dd7be1c11a7990600090a2505050505050505050565b6000806121f4836138bd565b600481015490925074010000000000000000000000000000000000000000900460ff1615612221576122ef565b61222a82614c13565b60408051808201909152601781527f4147525f43414e4e4f545f434c4f53455f414354494f4e00000000000000000060208201529015156122b05760405160e560020a62461bcd02815260040180806020018281038252838181518152602001915080519060200190808383600083811015610dae578181015183820152602001610d96565b506122ba82614944565b6003810154600485015460018301549294506122e59350600160a060020a0391821692911690614ccd565b6122ef8383614d5e565b505050565b600080612300836141aa565b5091505061230d81614526565b91505b50919050565b6000806000806000806000806000806000806123318d6141aa565b6004830154929e50909c509a50600160a060020a03169850338914156123e65761235a8b614dce565b60408051808201909152601881527f4147525f43414e4e4f545f534554544c455f414354494f4e000000000000000060208201529015156123e05760405160e560020a62461bcd02815260040180806020018281038252838181518152602001915080519060200190808383600083811015610dae578181015183820152602001610d96565b50612477565b6123ef8b614dd9565b60408051808201909152601881527f4147525f43414e4e4f545f534554544c455f414354494f4e000000000000000060208201529015156124755760405160e560020a62461bcd02815260040180806020018281038252838181518152602001915080519060200190808383600083811015610dae578181015183820152602001610d96565b505b6124808c614944565b97509750866001015495508a600301549450858510156124a057846124a2565b855b60018c015460038901549195508588039450600160a060020a0390811693501690506124cf818a85614ccd565b6124db818a8487614e22565b865460028801546124f791600160a060020a0316908490614ea7565b60048b015460058c015461251691600160a060020a0316908490614ea7565b60088b01805460ff191660019081179091558c0154604080517ff83a1515000000000000000000000000000000000000000000000000000000008152600481019290925251600160a060020a038a169163f83a151591602480830192600092919082900301818387803b15801561258c57600080fd5b505af11580156125a0573d6000803e3d6000fd5b50506040518c92508f91507f1085b774562bcd99aae2e239890e1fe1922552d9a331eae9dc755d535d2bca0e90600090a36125db8d8d614d5e565b50505050505050505050505050565b604080516000808252602082019092527f2309a8cbbd5c3f18649f3b7ac47a0e7b99756c2ac146dda1ffc80d3f80827be69061262a903390839085610d21565b60408051808201909152600f81527f4150505f415554485f4641494c4544000000000000000000000000000000000060208201529015156126b05760405160e560020a62461bcd02815260040180806020018281038252838181518152602001915080519060200190808383600083811015610dae578181015183820152602001610d96565b50600160a060020a038316600090815260046020526040902091506126d482613add565b815460ff19168255604051600160a060020a038416907f0856d2e58a20e983094def11432f91b5603c266814eecf5189accda0edd92a5a90600090a2505050565b600080606080600061272686614f50565b805460018083015460028085018054604080516020601f600019988516156101000298909801909316949094049586018290048202840182019052848352600160a060020a039586169b509290941698509394508301828280156127cb5780601f106127a0576101008083540402835291602001916127cb565b820191906000526020600020905b8154815290600101906020018083116127ae57829003601f168201915b5050505060038301805460408051602060026001851615610100026000190190941693909304601f810184900484028201840190925281815294975091925083018282801561285b5780601f106128305761010080835404028352916020019161285b565b820191906000526020600020905b81548152906001019060200180831161283e57829003601f168201915b50505050509150509193509193565b604080516000808252602082019092527f07813bca4905795fa22783885acd0167950db28f2d7a40b70f666f429e19f1d9916128aa913391849190610d21565b60408051808201909152600f81527f4150505f415554485f4641494c4544000000000000000000000000000000000060208201529015156129305760405160e560020a62461bcd02815260040180806020018281038252838181518152602001915080519060200190808383600083811015610dae578181015183820152602001610d96565b50610e1b878787878080601f0160208091040260200160405190810160405280939291908181526020018383808284375050604080516020601f8d018190048102820181019092528b815294508b93508a9250829150840183828082843750614028945050505050565b6000806129a6836138bd565b905061230d816148c7565b6000806129bd836138bd565b905061230d81614c13565b50600090565b60008060006129dc846144f3565b9450509350506129eb82614526565b60408051808201909152601a81527f4147525f43414e4e4f545f5355424d49545f45564944454e43450000000000006020820152901515612a715760405160e560020a62461bcd02815260040180806020018281038252838181518152602001915080519060200190808383600083811015610dae578181015183820152602001610d96565b506008820154610100900460ff168015612a955750600882015462010000900460ff165b6040805190810160405280602081526020017f4147525f43414e4e4f545f434c4f53455f45564944454e43455f504552494f44815250901515612b1d5760405160e560020a62461bcd02815260040180806020018281038252838181518152602001915080519060200190808383600083811015610dae578181015183820152602001610d96565b50612b278361421d565b905080600160a060020a0316637e9adccf856040518263ffffffff16600080516020615cd783398151915202815260040180828152602001915050600060405180830381600087803b158015612b7c57600080fd5b505af1158015612b90573d6000803e3d6000fd5b5050505050505050565b6000612bc57fd625496217aa6a3453eecb9c3489dc5a53e6c67b444329ea2b2cbc9ff547639b614ffb565b905090565b6000612bc57febb05b386a8d34882b8711d156f463690983dc47815980fb82aeeff1aa43579e614ffb565b7fef025787d7cd1a96d9014b8dc7b44899b8c1350859fb9e1e05f5a546dd65158d81565b6000806000612c27846129c8565b60408051808201909152601281527f5245434f5645525f444953414c4c4f57454400000000000000000000000000006020820152901515612cad5760405160e560020a62461bcd02815260040180806020018281038252838181518152602001915080519060200190808383600083811015610dae578181015183820152602001610d96565b50612cb6611b83565b9250612cc183614002565b60408051808201909152601a81527f5245434f5645525f5641554c545f4e4f545f434f4e54524143540000000000006020820152901515612d475760405160e560020a62461bcd02815260040180806020018281038252838181518152602001915080519060200190808383600083811015610dae578181015183820152602001610d96565b50600160a060020a0384161515612d985760405130319250600160a060020a0384169083156108fc029084906000818181858888f19350505050158015612d92573d6000803e3d6000fd5b50612e57565b5082612db3600160a060020a0382163063ffffffff61500316565b9150612dcf600160a060020a038216848463ffffffff61511816565b60408051808201909152601d81527f5245434f5645525f544f4b454e5f5452414e534645525f4641494c45440000006020820152901515612e555760405160e560020a62461bcd02815260040180806020018281038252838181518152602001915080519060200190808383600083811015610dae578181015183820152602001610d96565b505b83600160a060020a031683600160a060020a03167f596caf56044b55fb8c4ca640089bbc2b63cae3e978b851f5745cbb7c5b288e02846040518082815260200191505060405180910390a350505050565b600080612eb3610e24565b1515612ec25760009150612ffa565b612eca6135c8565b9050600160a060020a0381161515612ee55760009150612ffa565b80600160a060020a031663fdef9106863087612f00886151a3565b604051600080516020615cd783398151915263ffffffff8716028152600160a060020a03808616600483019081529085166024830152604482018490526080606483019081528351608484015283519192909160a490910190602085019080838360005b83811015612f7c578181015183820152602001612f64565b50505050905090810190601f168015612fa95780820380516001836020036101000a031916815260200191505b5095505050505050602060405180830381600087803b158015612fcb57600080fd5b505af1158015612fdf573d6000803e3d6000fd5b505050506040513d6020811015612ff557600080fd5b505191505b509392505050565b60008061300d6135c8565b604080517fbe00bbd80000000000000000000000000000000000000000000000000000000081527fd6f028ca0e8edb4a8c9757ca4fdccab25fa1e0317da1188108f7d2dee14902fb60048201527fddbcfd564f642ab5627cf68b9b7d374fb4f8a36e941a75d89c87998cef03bd6160248201529051600160a060020a03929092169163be00bbd8916044808201926020929091908290030181600087803b1580156110fc57600080fd5b6000806130c3836141aa565b5091505061230d816141d3565b6000612bc56151ad565b60008060008060008060606000806000806130f48c6138bd565b91508160000160009054906101000a9004600160a060020a03169a508160010154995081600201549850816003015497508160040160009054906101000a9004600160a060020a031696508160040160149054906101000a900460ff169550816005018054600181600116156101000203166002900480601f0160208091040260200160405190810160405280929190818152602001828054600181600116156101000203166002900480156131eb5780601f106131c0576101008083540402835291602001916131eb565b820191906000526020600020905b8154815290600101906020018083116131ce57829003601f168201915b5050505050945081600601549350600084111561322a5761320b8c6141aa565b50915050613218816151c3565b80613227575061322781614526565b92505b50509193959799909294969850565b600160a060020a03811660009081526004602052604081208054600182015460ff909116929190801561326f5760018103613272565b60005b92505050915091565b600080600080600061328c896144f3565b96505095505061329b84614526565b60408051808201909152601a81527f4147525f43414e4e4f545f5355424d49545f45564944454e434500000000000060208201529015156133215760405160e560020a62461bcd02815260040180806020018281038252838181518152602001915080519060200190808383600083811015610dae578181015183820152602001610d96565b5061332b8561421d565b6004860154909350600160a060020a03163314156133b2576008840154610100900460ff16806133585750855b9150613398838a338b8b8080601f016020809104026020016040519081016040528093929190818152602001838380828437508b94506144279350505050565b60088401805461ff001916610100841515021790556134b6565b6001840154600160a060020a031633141561343957600884015462010000900460ff16806133dd5750855b905061341d838a338b8b8080601f016020809104026020016040519081016040528093929190818152602001838380828437508a94506144279350505050565b60088401805462ff0000191662010000831515021790556134b6565b604080518082018252601681527f4147525f53454e4445525f4e4f545f414c4c4f574544000000000000000000006020808301918252925160e560020a62461bcd02815260048101938452825160248201528251929392839260449092019190808383600083811015610dae578181015183820152602001610d96565b505050505050505050565b60008060006134d66134d16151ad565b614f50565b80549093506134ed90600160a060020a03166151cb565b6001840154909250600160a060020a031690508015801590613521575081600160a060020a031681600160a060020a031614155b156122ef57600183018054600160a060020a03841673ffffffffffffffffffffffffffffffffffffffff19909116811790915560408051918252517f5c20330e5ee6de3e038fed5a36f3a187d54bd029f64795d55ef2c4c8f6f9f0579181900360200190a1505050565b7f07813bca4905795fa22783885acd0167950db28f2d7a40b70f666f429e19f1d981565b6000806135bb836141aa565b5091505061230d81614dd9565b6000612bc57f4172f0f7d2289153072b0a6ca36959e0cbe2efc3afe50fc81636caa96338137b614ffb565b6000600019613600612bca565b14905090565b600080613612836141aa565b5091505061230d81614dce565b336000908152600460205260408120818080808080808061363f89613add565b6136476151ad565b600160a060020a038c16600090815260036020908152604091829020548251808401909352601483527f4147525f5349474e45525f4d5553545f5349474e000000000000000000000000918301919091529199509097508789146136f05760405160e560020a62461bcd02815260040180806020018281038252838181518152602001915080519060200190808383600083811015610dae578181015183820152602001610d96565b50600189600101540395506137058987613e83565b6003810154600182015491965061372991600160a060020a03909116908d9061525a565b60058054600181019091556000818152600660205260409020909450925061375088614f50565b915033905061376182828d876152d3565b808360000160006101000a815481600160a060020a030219169083600160a060020a031602179055508d83600101819055508583600201819055508783600301819055508a8360040160006101000a815481600160a060020a030219169083600160a060020a031602179055508c8c8460050191906137e1929190615bd4565b50604051339085907fdaa0424e8d4e6b8fe642d59657ad0644830036b48391ed9f3e246a0f440809ae90600090a350919c9b505050505050505050505050565b600080600080600061383286613ddf565b600681015460078201546004830154600590930154600160a060020a039283169a919950919092169650945092505050565b600061386f826155ba565b80610cb35750507fffffffff00000000000000000000000000000000000000000000000000000000167f88f3ee69000000000000000000000000000000000000000000000000000000001490565b600080821180156138cf575060055482105b60408051808201909152601981527f4147525f414354494f4e5f444f45535f4e4f545f45584953540000000000000060208201529015156139555760405160e560020a62461bcd02815260040180806020018281038252838181518152602001915080519060200190808383600083811015610dae578181015183820152602001610d96565b5050600090815260066020526040902090565b60008060606139756135c8565b9150600160a060020a03821615156139905760009250613ad5565b6139a161399c85615604565b6151a3565b6040517ffdef9106000000000000000000000000000000000000000000000000000000008152600160a060020a038681166004830190815288821660248401527fef025787d7cd1a96d9014b8dc7b44899b8c1350859fb9e1e05f5a546dd65158d604484018190526080606485019081528551608486015285519596509287169463fdef9106948a948c948993909260a40190602085019080838360005b83811015613a57578181015183820152602001613a3f565b50505050905090810190601f168015613a845780820380516001836020036101000a031916815260200191505b5095505050505050602060405180830381600087803b158015613aa657600080fd5b505af1158015613aba573d6000803e3d6000fd5b505050506040513d6020811015613ad057600080fd5b505192505b505092915050565b805460408051808201909152601981527f4147525f44495350555441424c455f4e4f545f4143544956450000000000000060208201529060ff161515613b685760405160e560020a62461bcd02815260040180806020018281038252838181518152602001915080519060200190808383600083811015610dae578181015183820152602001610d96565b5050565b6000806000613b7a87614002565b60408051808201909152601681527f4147525f544f4b454e5f4e4f545f434f4e5452414354000000000000000000006020820152901515613c005760405160e560020a62461bcd02815260040180806020018281038252838181518152602001915080519060200190808383600083811015610dae578181015183820152602001610d96565b5060008054604080517fc646a93c000000000000000000000000000000000000000000000000000000008152600160a060020a038b811660048301529151919092169263c646a93c92602480820193602093909283900390910190829087803b158015613c6c57600080fd5b505af1158015613c80573d6000803e3d6000fd5b505050506040513d6020811015613c9657600080fd5b810190808051906020019092919050505092508760010160008154809291906001019190505591508760020160008381526020019081526020016000209050868160000160006101000a815481600160a060020a030219169083600160a060020a03160217905550858160000160146101000a81548167ffffffffffffffff021916908367ffffffffffffffff160217905550848160010181905550838160020181905550828160030160006101000a815481600160a060020a030219169083600160a060020a0316021790555088600160a060020a03167f4efea8c074f09ca85002d7b9f73509f40f8e954cef7bf647c8a1fc69ad58d9c5836040518082815260200191505060405180910390a2505050505050505050565b4390565b600160a060020a03811660009081526003602052604081205490613dd66151ad565b82109050915091565b6000613dea82615618565b60408051808201909152601c81527f4147525f4348414c4c454e47455f444f45535f4e4f545f4558495354000000006020820152901515613e705760405160e560020a62461bcd02815260040180806020018281038252838181518152602001915080519060200190808383600083811015610dae578181015183820152602001610d96565b5050600090815260086020526040902090565b600080600083118015613e995750836001015483105b60408051808201909152601a81527f4147525f434f4c5f5245515f444f45535f4e4f545f45584953540000000000006020820152909150811515613f225760405160e560020a62461bcd02815260040180806020018281038252838181518152602001915080519060200190808383600083811015610dae578181015183820152602001610d96565b50505060009081526002919091016020526040902090565b613f42612bca565b60408051808201909152601881527f494e49545f414c52454144595f494e495449414c495a4544000000000000000060208201529015613fc75760405160e560020a62461bcd02815260040180806020018281038252838181518152602001915080519060200190808383600083811015610dae578181015183820152602001610d96565b50614000613fd3613db0565b7febb05b386a8d34882b8711d156f463690983dc47815980fb82aeeff1aa43579e9063ffffffff61562c16565b565b600080600160a060020a038316151561401e5760009150612310565b50506000903b1190565b60008061403486614002565b60408051808201909152601b81527f4147525f41524249545241544f525f4e4f545f434f4e5452414354000000000060208201529015156140ba5760405160e560020a62461bcd02815260040180806020018281038252838181518152602001915080519060200190808383600083811015610dae578181015183820152602001610d96565b50506001805480820190915560008181526002602081815260409092208651939450926140ed9291840191870190615c4e565b5082516141039060038301906020860190615c4e565b50805473ffffffffffffffffffffffffffffffffffffffff1916600160a060020a0387161781558461413657600061413f565b61413f866151cb565b60018201805473ffffffffffffffffffffffffffffffffffffffff1916600160a060020a03929092169190911790556040805183815290517fae9caf5307484416d509bfcd90a554f883f557bf4d6ea368bdd803b7ec174cb6916020908290030190a1505050505050565b60008060006141b8846138bd565b9250826006015490506141ca81613ddf565b91509193909250565b60006141de826151c3565b8015610cb357506141ed615630565b600183015467ffffffffffffffff7401000000000000000000000000000000000000000090910416119050919050565b60008061422d8360030154614f50565b54600160a060020a03169392505050565b60008060008060008087600160a060020a0316637b751b9e6040518163ffffffff16600080516020615cd7833981519152028152600401606060405180830381600087803b15801561428f57600080fd5b505af11580156142a3573d6000803e3d6000fd5b505050506040513d60608110156142b957600080fd5b508051602082015160409092015160068c01805473ffffffffffffffffffffffffffffffffffffffff1916600160a060020a038086169190911790915560078d0182905560048e01549298509296509450169150614318848385615634565b6143238486856156de565b604080517fc13517e1000000000000000000000000000000000000000000000000000000008152600260048201818152602483019384528a5160448401528a51600160a060020a038d169463c13517e1948d9392606490910190602085019080838360005b838110156143a0578181015183820152602001614388565b50505050905090810190601f1680156143cd5780820380516001836020036101000a031916815260200191505b509350505050602060405180830381600087803b1580156143ed57600080fd5b505af1158015614401573d6000803e3d6000fd5b505050506040513d602081101561441757600080fd5b50519a9950505050505050505050565b6000825111156144ec5782600160a060020a03168486600160a060020a03167f1988e4d59f596ba1a2d81e06874704a62502463ae6d99154f923e5edeb98392b8585604051808060200183151515158152602001828103825284818151815260200191508051906020019080838360005b838110156144b0578181015183820152602001614498565b50505050905090810190601f1680156144dd5780820380516001836020036101000a031916815260200191505b50935050505060405180910390a45b5050505050565b60008181526009602052604081205481908161450e82613ddf565b80549450905061451d846138bd565b92509193509193565b600060025b600883015460ff16600581111561453e57fe5b1492915050565b60088101805460ff191660031790556004830154600160a060020a031660008061456e86614944565b8054600282015492945090925061459291600160a060020a03909116908590614ea7565b600484015460058501546145b191600160a060020a0316908590614ea7565b81600160a060020a0316637ad267b687600101546040518263ffffffff16600080516020615cd783398151915202815260040180828152602001915050600060405180830381600087803b15801561460857600080fd5b505af115801561461c573d6000803e3d6000fd5b50506040518792508991507fe22a91e75f41c1eb6b719a97482597fdbe1a132d3287933498dba5467d59a68790600090a350505050505050565b60088101805460ff191660041790556001810154600160a060020a031660008061467f86614944565b6003810154600489015460018301549395509193506146af92600160a060020a0391821692909116908690614e22565b805460028201546146cb91600160a060020a0316908590614ea7565b600484015460058501546146ea91600160a060020a0316908590614ea7565b81600160a060020a031663f83a151587600101546040518263ffffffff16600080516020615cd783398151915202815260040180828152602001915050600060405180830381600087803b15801561474157600080fd5b505af1158015614755573d6000803e3d6000fd5b50506040518792508991507fe1a2ee51259a3832b7a409c9ac09f6749999247798a2b9034c17bbb8431747b790600090a3610e1b8787614d5e565b60088101805460ff1916600517905560008080808080806147b08a614944565b60018a015481546002830154939a50919850600160a060020a0390811697506147dd929116908790614ea7565b50505050600484810154600586015491880154600160a060020a0391821692916002830491828403916148139186911684614ea7565b61481e848683614ea7565b86600160a060020a031663b08630638b600101546040518263ffffffff16600080516020615cd783398151915202815260040180828152602001915050600060405180830381600087803b15801561487557600080fd5b505af1158015614889573d6000803e3d6000fd5b50506040518b92508d91507f6fc5fbdcd245dd8caeb8ddbdd14c7a3cb8c2ce5b6a5d654e2f2b4dd64426be7390600090a35050505050505050505050565b60006148d282615829565b8015610cb3575081546001830154604080517f6ab6802b000000000000000000000000000000000000000000000000000000008152600481019290925251600160a060020a0390921691636ab6802b916024808201926020929091908290030181600087803b1580156110fc57600080fd5b8054600160a060020a03166000818152600460205260408120600284015461496d908290613e83565b915050915091565b60078054600180820190925560008181526008602052604081208a8155928301805473ffffffffffffffffffffffffffffffffffffffff1916600160a060020a038a161790558654909290839081908190614a0a9074010000000000000000000000000000000000000000900467ffffffffffffffff166149f46158b8565b67ffffffffffffffff169063ffffffff6158ca16565b60018501805467ffffffffffffffff9290921674010000000000000000000000000000000000000000027fffffffff0000000000000000ffffffffffffffffffffffffffffffffffffffff9092169190911790558651614a7390600286019060208a0190615c4e565b506003840189905560088401805462ff00001916620100008a151502179055895460028b0154614aae91600160a060020a0316908d90615634565b614ab78c61421d565b925082600160a060020a0316637b751b9e6040518163ffffffff16600080516020615cd7833981519152028152600401606060405180830381600087803b158015614b0157600080fd5b505af1158015614b15573d6000803e3d6000fd5b505050506040513d6060811015614b2b57600080fd5b50602081015160409091015160048601805473ffffffffffffffffffffffffffffffffffffffff1916600160a060020a038416179055600586018190559092509050614b78828c83615634565b50929b9a5050505050505050505050565b805460408051808201909152601d81527f4147525f44495350555441424c455f414c52454144595f41435449564500000060208201529060ff1615613b685760405160e560020a62461bcd02815260040180806020018281038252838181518152602001915080519060200190808383600083811015610dae578181015183820152602001610d96565b600080614c1f83615829565b1515614c2e5760009150612310565b508154600160a060020a03163381148061230d575080600160a060020a03166376740b5b84600101546040518263ffffffff16600080516020615cd783398151915202815260040180828152602001915050602060405180830381600087803b158015614c9a57600080fd5b505af1158015614cae573d6000803e3d6000fd5b505050506040513d6020811015614cc457600080fd5b50519392505050565b801515614cd9576122ef565b604080517f59508f8f000000000000000000000000000000000000000000000000000000008152600160a060020a038481166004830152306024830152604482018490529151918516916359508f8f9160648082019260009290919082900301818387803b158015614d4a57600080fd5b505af1158015610e1b573d6000803e3d6000fd5b6004810180547fffffffffffffffffffffff00ffffffffffffffffffffffffffffffffffffffff167401000000000000000000000000000000000000000017905560405182907ffd0589b9682733317d7f3b84a13bb57660efd49cad1cf97d6e04eec435ce605c90600090a25050565b6000610cb3826151c3565b6000614de4826151c3565b8015610cb35750600182015474010000000000000000000000000000000000000000900467ffffffffffffffff16614e1a615630565b101592915050565b801515614e2e57614ea1565b604080517f58f21872000000000000000000000000000000000000000000000000000000008152600160a060020a0385811660048301528481166024830152604482018490529151918616916358f218729160648082019260009290919082900301818387803b158015612b7c57600080fd5b50505050565b60008111156122ef57614eca600160a060020a038416838363ffffffff61511816565b60408051808201909152601981527f4147525f544f4b454e5f5452414e534645525f4641494c4544000000000000006020820152901515614ea15760405160e560020a62461bcd02815260040180806020018281038252838181518152602001915080519060200190808383600083811015610dae578181015183820152602001610d96565b60008082118015614f62575060015482105b60408051808201909152601a81527f4147525f53455454494e475f444f45535f4e4f545f45584953540000000000006020820152901515614fe85760405160e560020a62461bcd02815260040180806020018281038252838181518152602001915080519060200190808383600083811015610dae578181015183820152602001610d96565b5050600090815260026020526040902090565b5490565b5490565b60408051600160a060020a0383166024808301919091528251808303909101815260449091019091526020810180517bffffffffffffffffffffffffffffffffffffffffffffffffffffffff167f70a082310000000000000000000000000000000000000000000000000000000017905260009081806150838684615965565b60408051808201909152601c81527f534146455f4552435f32305f42414c414e43455f5245564552544544000000006020820152919350915082151561510e5760405160e560020a62461bcd02815260040180806020018281038252838181518152602001915080519060200190808383600083811015610dae578181015183820152602001610d96565b5095945050505050565b60408051600160a060020a038416602482015260448082018490528251808303909101815260649091019091526020810180517bffffffffffffffffffffffffffffffffffffffffffffffffffffffff167fa9059cbb0000000000000000000000000000000000000000000000000000000017905260009061519a8582615996565b95945050505050565b8051602002815290565b60006001546000146129c8576001805403612bc5565b60008061452b565b604080517fe3f2311e00000000000000000000000000000000000000000000000000000000815230600482015290516000918291600160a060020a0385169163e3f2311e91602480830192606092919082900301818787803b15801561523057600080fd5b505af1158015615244573d6000803e3d6000fd5b505050506040513d6060811015614cc457600080fd5b801515615266576122ef565b82600160a060020a031663282d3fdf83836040518363ffffffff16600080516020615cd78339815191520281526004018083600160a060020a0316600160a060020a0316815260200182815260200192505050600060405180830381600087803b158015614d4a57600080fd5b6001840154600160a060020a031660008080808415156152f2576134b6565b87600160a060020a03166380afdea86040518163ffffffff16600080516020615cd7833981519152028152600401602060405180830381600087803b15801561533a57600080fd5b505af115801561534e573d6000803e3d6000fd5b505050506040513d602081101561536457600080fd5b5051604080517fdc6839ba000000000000000000000000000000000000000000000000000000008152600481018390528151929650600160a060020a0388169263dc6839ba926024808401939192918290030181600087803b1580156153c957600080fd5b505af11580156153dd573d6000803e3d6000fd5b505050506040513d60408110156153f357600080fd5b508051602090910151909350915081151561540d576134b6565b60008054604080517fc646a93c000000000000000000000000000000000000000000000000000000008152600160a060020a0387811660048301529151919092169263c646a93c92602480820193602093909283900390910190829087803b15801561547857600080fd5b505af115801561548c573d6000803e3d6000fd5b505050506040513d60208110156154a257600080fd5b505190506154b181888461525a565b6154bd81883085614e22565b6154c88386846156de565b6040805160208082018990528251808303820181528284018085527fe21b27780000000000000000000000000000000000000000000000000000000090526044830188815260648401948552815160848501528151600160a060020a038b169563e21b2778958b95919260a49091019185019080838360005b83811015615559578181015183820152602001615541565b50505050905090810190601f1680156155865780820380516001836020036101000a031916815260200191505b509350505050600060405180830381600087803b1580156155a657600080fd5b505af11580156125db573d6000803e3d6000fd5b7fffffffff0000000000000000000000000000000000000000000000000000000081167f01ffc9a70000000000000000000000000000000000000000000000000000000014919050565b6060610cb382600160a060020a03166159e4565b60008082118015610cb35750506007541190565b9055565b4290565b60008111156122ef57615658600160a060020a03841683308463ffffffff615a2516565b60408051808201909152601881527f4147525f544f4b454e5f4445504f5349545f4641494c454400000000000000006020820152901515614ea15760405160e560020a62461bcd02815260040180806020018281038252838181518152602001915080519060200190808383600083811015610dae578181015183820152602001610d96565b60008111156122ef57615702600160a060020a03841683600063ffffffff615ab916565b60408051808201909152601981527f4147525f544f4b454e5f415050524f56414c5f4641494c45440000000000000060208201529015156157885760405160e560020a62461bcd02815260040180806020018281038252838181518152602001915080519060200190808383600083811015610dae578181015183820152602001610d96565b506157a3600160a060020a038416838363ffffffff615ab916565b60408051808201909152601981527f4147525f544f4b454e5f415050524f56414c5f4641494c4544000000000000006020820152901515614ea15760405160e560020a62461bcd02815260040180806020018281038252838181518152602001915080519060200190808383600083811015610dae578181015183820152602001610d96565b6000806000808460040160149054906101000a900460ff161561584f57600093506158b0565b8460060154925061585f83615618565b151561586e57600193506158b0565b505060008181526008602081905260409091209081015460ff16600381600581111561589657fe5b14806158ad575060058160058111156158ab57fe5b145b93505b505050919050565b6000612bc56158c5615630565b615b3b565b60408051808201909152601381527f4d41544836345f4144445f4f564552464c4f570000000000000000000000000060208201526000908383019067ffffffffffffffff8086169083161015612ffa5760405160e560020a62461bcd02815260040180806020018281038252838181518152602001915080519060200190808383600083811015610dae578181015183820152602001610d96565b6000806000806040516020818751602089018a5afa9250600083111561598a57805191505b50909590945092505050565b6000806040516020818551602087016000895af160008111156159da573d80156159c757602081146159d0576159d8565b600193506159d8565b600183511493505b505b5090949350505050565b6040805160018082528183019092526060916020808301908038833901905050905081816000815181101515615a1657fe5b60209081029091010152919050565b60408051600160a060020a0385811660248301528416604482015260648082018490528251808303909101815260849091019091526020810180517bffffffffffffffffffffffffffffffffffffffffffffffffffffffff167f23b872dd00000000000000000000000000000000000000000000000000000000179052600090615aaf8682615996565b9695505050505050565b60408051600160a060020a038416602482015260448082018490528251808303909101815260649091019091526020810180517bffffffffffffffffffffffffffffffffffffffffffffffffffffffff167f095ea7b30000000000000000000000000000000000000000000000000000000017905260009061519a8582615996565b60408051808201909152601581527f55494e5436345f4e554d4245525f544f4f5f4249470000000000000000000000602082015260009067ffffffffffffffff831115615bcd5760405160e560020a62461bcd02815260040180806020018281038252838181518152602001915080519060200190808383600083811015610dae578181015183820152602001610d96565b5090919050565b828054600181600116156101000203166002900490600052602060002090601f016020900481019282601f10615c155782800160ff19823516178555615c42565b82800160010185558215615c42579182015b82811115615c42578235825591602001919060010190615c27565b50610e4a929150615cbc565b828054600181600116156101000203166002900490600052602060002090601f016020900481019282601f10615c8f57805160ff1916838001178555615c42565b82800160010185558215615c42579182015b82811115615c42578251825591602001919060010190615ca1565b611c0391905b80821115610e4a5760008155600101615cc256000000000100000000000000000000000000000000000000000000000000000000a165627a7a72305820a26c143cba1877b6265abdb79d604eae3d550e41cb2066715f39889576c6c9b90029ebb05b386a8d34882b8711d156f463690983dc47815980fb82aeeff1aa43579e",
  "devdoc": {
    "methods": {
      "activate(address,address,uint64,uint256,uint256)": {
        "details": "Initialization check is implicitly provided by the `auth()` modifier",
        "params": {
          "_actionAmount": "Amount of collateral tokens that will be locked every time an action is submitted",
          "_challengeAmount": "Amount of collateral tokens that will be locked every time an action is challenged",
          "_challengeDuration": "Challenge duration, during which the submitter can raise a dispute",
          "_collateralToken": "Address of the ERC20 token to be used for collateral",
          "_disputableAddress": "Address of the Disputable app"
        }
      },
      "allowRecoverability(address)": {
        "details": "Disable built-in AragonApp token recovery escape hatch.     This app is intended to hold users' funds and we do not want to allow them to be transferred to the default vault.",
        "return": "Always false"
      },
      "canChallenge(uint256)": {
        "details": "Tell whether an action can be challenged",
        "params": {
          "_actionId": "Identification number of the action"
        },
        "return": "True if the action can be challenged, false otherwise"
      },
      "canClaimSettlement(uint256)": {
        "details": "Tell whether an action can be settled by claiming its challenge settlement",
        "params": {
          "_actionId": "Identification number of the action"
        },
        "return": "True if the action settlement can be claimed, false otherwise"
      },
      "canClose(uint256)": {
        "details": "Tell whether an action can be manually closed.     An action can be closed if it is allowed to:      - Proceed in the context of this Agreement (see `_canProceed()`), and      - Be closed in the context of the originating Disputable app",
        "params": {
          "_actionId": "Identification number of the action"
        },
        "return": "True if the action can be closed, false otherwise"
      },
      "canDispute(uint256)": {
        "details": "Tell whether an action can be disputed",
        "params": {
          "_actionId": "Identification number of the action"
        },
        "return": "True if the action can be disputed, false otherwise"
      },
      "canPerform(address,address,bytes32,uint256[])": {
        "details": "ACL oracle interface conformance",
        "return": "True if a parameterized address has signed the current version of the Agreement, false otherwise"
      },
      "canPerform(address,bytes32,uint256[])": {
        "details": "Check whether an action can be performed by a sender for a particular role on this app",
        "params": {
          "_params": "Permission params for the role",
          "_role": "Role on this app",
          "_sender": "Sender of the call"
        },
        "return": "Boolean indicating whether the sender has the permissions to perform the action.        Always returns false if the app hasn't been initialized yet."
      },
      "canPerformChallenge(uint256,address)": {
        "details": "Tell whether an address can challenge an action",
        "params": {
          "_actionId": "Identification number of the action",
          "_challenger": "Address of the challenger"
        },
        "return": "True if the challenger can challenge the action, false otherwise"
      },
      "canRuleDispute(uint256)": {
        "details": "Tell whether an action's dispute can be ruled",
        "params": {
          "_actionId": "Identification number of the action"
        },
        "return": "True if the action's dispute can be ruled, false otherwise"
      },
      "canSettle(uint256)": {
        "details": "Tell whether an action can be settled",
        "params": {
          "_actionId": "Identification number of the action"
        },
        "return": "True if the action can be settled, false otherwise"
      },
      "canUnlock(address,uint256)": {
        "details": "ILockManager conformance.     The Staking contract checks this on each request to unlock an amount managed by this Agreement.     It always returns false to disable owners from unlocking their funds arbitrarily, as we     want to control the release of the locked amount when actions are closed or settled.",
        "return": "Whether the request to unlock tokens of a given owner should be allowed"
      },
      "challengeAction(uint256,uint256,bool,bytes)": {
        "details": "This is only callable by those who hold the CHALLENGE_ROLE on the related Disputable app.     Can be called multiple times per action, until a challenge is successful (settled or ruled for challenger).     Initialization check is implicitly provided by `_getAction()` as disputable actions can only be created via `newAction()`.",
        "params": {
          "_actionId": "Identification number of the action to be challenged",
          "_context": "Link to a human-readable context for the challenge",
          "_finishedEvidence": "Whether the challenger is finished submitting evidence with the challenge context",
          "_settlementOffer": "Amount of collateral tokens the challenger would accept for resolving the dispute without involving the arbitrator"
        }
      },
      "changeCollateralRequirement(address,address,uint64,uint256,uint256)": {
        "details": "Initialization check is implicitly provided by the `auth()` modifier",
        "params": {
          "_actionAmount": "Amount of collateral tokens that will be locked every time an action is submitted",
          "_challengeAmount": "Amount of collateral tokens that will be locked every time an action is challenged",
          "_challengeDuration": "Challenge duration, during which the submitter can raise a dispute",
          "_collateralToken": "Address of the ERC20 token to be used for collateral",
          "_disputable": "Address of the Disputable app"
        }
      },
      "changeSetting(address,bool,string,bytes)": {
        "details": "Initialization check is implicitly provided by the `auth()` modifier",
        "params": {
          "_arbitrator": "Address of the IArbitrator that will be used to resolve disputes",
          "_content": "Link to a human-readable text that describes the new rules for the Agreement",
          "_setAppFeesCashier": "Whether to integrate with the IArbitrator's fee cashier",
          "_title": "String indicating a short description"
        }
      },
      "closeAction(uint256)": {
        "details": "This function closes actions that:     - Are not currently challenged nor disputed, or     - Were previously disputed but ruled in favour of the submitter or voided     Disputable apps may call this method directly at the end of an action, but is also accessible in a permission-less manner     in case the app does not close its own actions automatically (e.g. disputable votes that don't pass).     Can be called multiple times; it does nothing if the action is already closed.     Initialization check is implicitly provided by `_getAction()` as disputable actions can only be created via `newAction()`.",
        "params": {
          "_actionId": "Identification number of the action to be closed"
        }
      },
      "closeEvidencePeriod(uint256)": {
        "details": "Callable by any account.     Initialization check is implicitly provided by `_getDisputedAction()` as disputable actions can only be created via `newAction()`.",
        "params": {
          "_disputeId": "Identification number of the dispute on the arbitrator"
        }
      },
      "deactivate(address)": {
        "details": "Initialization check is implicitly provided by the `auth()` modifier",
        "params": {
          "_disputableAddress": "Address of the Disputable app to be deactivated"
        }
      },
      "disputeAction(uint256,bool)": {
        "details": "Only the action submitter can create a dispute for an action with an open challenge.     Can only be called once (if at all) per opened challenge.     Initialization check is implicitly provided by `_getChallengedAction()` as disputable actions can only be created via `newAction()`.",
        "params": {
          "_actionId": "Identification number of the action to be disputed",
          "_submitterFinishedEvidence": "Whether the submitter was finished submitting evidence with their action context"
        }
      },
      "getAction(uint256)": {
        "details": "Tell the information related to an action",
        "params": {
          "_actionId": "Identification number of the action"
        },
        "return": "disputable Address of the Disputable app that created the actiondisputableActionId Identification number of the action on the Disputable appcollateralRequirementId Identification number of the collateral requirement applicable to the actionsettingId Identification number of the agreement setting applicable to the actionsubmitter Address that submitted the actionclosed Whether the action is closedcontext Link to a human-readable context for the actionlastChallengeId Identification number of the action's most recent challenge, if anylastChallengeActive Whether the action's most recent challenge is still ongoing"
      },
      "getChallenge(uint256)": {
        "details": "Tell the information related to an action challenge",
        "params": {
          "_challengeId": "Identification number of the challenge"
        },
        "return": "actionId Identification number of the action associated to the challengechallenger Address that challenged the actionendDate Datetime of the last date the submitter can raise a dispute against the challengecontext Link to a human-readable context for the challengesettlementOffer Amount of collateral tokens the challenger would accept for resolving the dispute without involving the arbitratorstate Current state of the challengesubmitterFinishedEvidence Whether the action submitter has finished submitting evidence for the associated disputechallengerFinishedEvidence Whether the action challenger has finished submitting evidence for the associated disputedisputeId Identification number of the associated dispute on the arbitratorruling Ruling given from the arbitrator for the dispute"
      },
      "getChallengeArbitratorFees(uint256)": {
        "details": "Tell the arbitration fees paid for an action challenge     Split from `getChallenge()` due to stack too deep issues",
        "params": {
          "_challengeId": "Identification number of the challenge"
        },
        "return": "submitterArbitratorFeesToken ERC20 token used for the arbitration fees paid by the submitter (on dispute creation)submitterArbitratorFeesAmount Amount of arbitration fees paid by the submitter (on dispute creation)challengerArbitratorFeesToken ERC20 token used for the arbitration fees paid by the challenger (in advance)challengerArbitratorFeesAmount Amount of arbitration fees paid by the challenger (in advance)"
      },
      "getCollateralRequirement(address,uint256)": {
        "details": "Tell the information related to a collateral requirement of a Disputable app",
        "params": {
          "_collateralRequirementId": "Identification number of the collateral requirement",
          "_disputable": "Address of the Disputable app"
        },
        "return": "collateralToken Address of the ERC20 token to be used for collateralactionAmount Amount of collateral tokens that will be locked every time an action is createdchallengeAmount Amount of collateral tokens that will be locked every time an action is challengedchallengeDuration Challenge duration, during which the submitter can raise a dispute"
      },
      "getCurrentSettingId()": {
        "details": "Tell the identification number of the current agreement setting",
        "return": "Identification number of the current agreement setting"
      },
      "getDisputableInfo(address)": {
        "details": "Tell the information related to a Disputable app",
        "params": {
          "_disputable": "Address of the Disputable app"
        },
        "return": "activated Whether the Disputable app is activecurrentCollateralRequirementId Identification number of the current collateral requirement"
      },
      "getInitializationBlock()": {
        "return": "Block number in which the contract was initialized"
      },
      "getRecoveryVault()": {
        "details": "Get the recovery vault for the app",
        "return": "Recovery vault address for the app"
      },
      "getSetting(uint256)": {
        "details": "Tell the information related to an agreement setting",
        "params": {
          "_settingId": "Identification number of the agreement setting"
        },
        "return": "arbitrator Address of the IArbitrator that will be used to resolve disputesaragonAppFeesCashier Address of the fees cashier to deposit action fees (linked to the selected arbitrator)title String indicating a short descriptioncontent Link to a human-readable text that describes the current rules for the Agreement"
      },
      "getSigner(address)": {
        "details": "Tell the information related to a signer",
        "params": {
          "_signer": "Address of signer"
        },
        "return": "lastSettingIdSigned Identification number of the last agreement setting signed by the signermustSign Whether the requested signer needs to sign the current agreement setting before submitting an action"
      },
      "hasInitialized()": {
        "return": "Whether the contract has been initialized by the time of the current block"
      },
      "initialize(address,bool,string,bytes,address)": {
        "params": {
          "_arbitrator": "Address of the IArbitrator that will be used to resolve disputes",
          "_content": "Link to a human-readable text that describes the initial rules for the Agreement",
          "_setAppFeesCashier": "Whether to integrate with the IArbitrator's fee cashier",
          "_stakingFactory": "Staking factory for finding each collateral token's staking pool",
          "_title": "String indicating a short description"
        }
      },
      "newAction(uint256,bytes,address)": {
        "details": "This function should be called from the Disputable app each time a new disputable action is created.     Each disputable action ID must only be registered once; this is how the Agreement gets notified about each disputable action.     Initialization check is implicitly provided by `_ensureActiveDisputable()` as Disputable apps can only be activated     via `activate()` which already requires initialization.     IMPORTANT: Note the responsibility of the Disputable app in terms of providing the correct `_submitter` parameter.     Users are required to trust that all Disputable apps activated with this Agreement have implemented this correctly, as     otherwise funds could be maliciously locked from the incorrect account on new actions.",
        "params": {
          "_context": "Link to a human-readable context for the given action",
          "_disputableActionId": "Identification number of the action on the Disputable app",
          "_submitter": "Address that submitted the action"
        },
        "return": "Unique identification number for the created action on the Agreement"
      },
      "rule(uint256,uint256)": {
        "details": "Can only be called once per challenge by the associated abitrator.     Initialization check is implicitly provided by `_getDisputedAction()` as disputable actions can only be created via `newAction()`.",
        "params": {
          "_disputeId": "Identification number of the dispute on the arbitrator",
          "_ruling": "Ruling given by the arbitrator"
        }
      },
      "settleAction(uint256)": {
        "details": "This can be accessed by both the submitter (at any time) or any account (after the settlement period has passed).     Can only be called once (if at all) per opened challenge.     Initialization check is implicitly provided by `_getChallengedAction()` as disputable actions can only be created via `newAction()`.",
        "params": {
          "_actionId": "Identification number of the action to be settled"
        }
      },
      "sign(uint256)": {
        "details": "Callable by any account; only accounts that have signed the latest version of the agreement can submit new disputable actions.     Initialization check is implicitly provided by `_settingId < nextSettingId`, as valid settings can only be created after initialization.",
        "params": {
          "_settingId": "Last setting ID the user is agreeing with"
        }
      },
      "submitEvidence(uint256,bytes,bool)": {
        "details": "Only callable by the action submitter or challenger.     Can be called as many times as desired until the dispute is over.     Initialization check is implicitly provided by `_getDisputedAction()` as disputable actions can only be created via `newAction()`.",
        "params": {
          "_disputeId": "Identification number of the dispute on the arbitrator",
          "_evidence": "Evidence data to be submitted",
          "_finished": "Whether the evidence submitter is now finished submitting evidence"
        }
      },
      "supportsInterface(bytes4)": {
        "details": "Query if a contract implements a certain interface",
        "params": {
          "_interfaceId": "The interface identifier being queried, as specified in ERC-165"
        },
        "return": "True if the contract implements the requested interface and if its not 0xffffffff, false otherwise"
      },
      "syncAppFeesCashier()": {
        "details": "The app fees cashier address is being cached in the contract to save gas.     This can be called permission-lessly to allow any account to re-sync the cashier when changed by the arbitrator.     Initialization check is implicitly provided by `_getSetting()`, as valid settings can only be created after initialization."
      },
      "transferToVault(address)": {
        "params": {
          "_token": "Token balance to be sent to recovery vault."
        }
      }
    }
  },
  "userdoc": {
    "methods": {
      "activate(address,address,uint64,uint256,uint256)": {
        "notice": "Activate Disputable app `_disputableAddress`"
      },
      "canPerform(address,address,bytes32,uint256[])": {
        "notice": "Tells whether an address has already signed the Agreement"
      },
      "challengeAction(uint256,uint256,bool,bytes)": {
        "notice": "Challenge action #`_actionId`"
      },
      "changeCollateralRequirement(address,address,uint64,uint256,uint256)": {
        "notice": "Change `_disputable`'s collateral requirements"
      },
      "changeSetting(address,bool,string,bytes)": {
        "notice": "Update Agreement to title \"`_title`\" and content \"`_content`\", with arbitrator `_arbitrator`"
      },
      "closeAction(uint256)": {
        "notice": "Close action #`_actionId`"
      },
      "closeEvidencePeriod(uint256)": {
        "notice": "Close evidence submission period for dispute #`_disputeId`"
      },
      "deactivate(address)": {
        "notice": "Deactivate Disputable app `_disputable`"
      },
      "disputeAction(uint256,bool)": {
        "notice": "Dispute challenged action #`_actionId`, raising it to the arbitrator"
      },
      "initialize(address,bool,string,bytes,address)": {
        "notice": "Initialize Agreement for \"`_title`\" and content \"`_content`\", with arbitrator `_arbitrator` and staking factory `_factory`"
      },
      "newAction(uint256,bytes,address)": {
        "notice": "Register action #`_disputableActionId` from disputable `msg.sender` for submitter `_submitter` with context `_context`"
      },
      "rule(uint256,uint256)": {
        "notice": "Rule the action associated to dispute #`_disputeId` with ruling `_ruling`"
      },
      "settleAction(uint256)": {
        "notice": "Settle challenged action #`_actionId`, accepting the settlement offer"
      },
      "sign(uint256)": {
        "notice": "Sign the agreement up-to setting #`_settingId`"
      },
      "submitEvidence(uint256,bytes,bool)": {
        "notice": "Submit evidence for dispute #`_disputeId`"
      },
      "syncAppFeesCashier()": {
        "notice": "Sync app fees cashier address"
      },
      "transferToVault(address)": {
        "notice": "Send funds to recovery Vault. This contract should never receive funds,        but in case it does, this function allows one to recover them."
      }
    }
  }
}